:030000000200B744
:0C00B700787FE4F6D8FD7581200200C6B9
:0C02A40075081D7509B7D509FDD508FACD
:0102B000222B
:10028F00E4FDFCC3ED9FEC9E500A1202A40DBD00CD
:04029F00010C80EFDF
:0102A3002238
:10026D00EFD3940040028001D39296EDD3940040D9
:10027D00028001D39292EBD3940040028001D3927D
:02028D009022BD
:05024600FDFF12026D36
:10024B00EFD3940040028001D392B2EDD3940040DF
:10025B00028001D392B5EBD3940040028001D3927C
:02026B00B622B9
:10020F00EF64014E7006C297D2CC8010EF64024E9D
:10021F007006D297C2CC8004C297C2CCED64014C59
:10022F007005C2B3D2B422ED64024C7005D2B3C2D2
:07023F00B422C2B3C2B422D5
:0300C30002000335
:10000300C0E0C083C082C0D075D000C006C007C0A6
:10001300BA43BA8090FE84E030E607E054BFF002B2
:1000230000A890FE84E030E540E054DFF0300004A7
:10003300C200807130010DC20190FE87E090000282
:10004300F0E0804290FE87E0FF900002E0FE04F0C3
:1000530074072EF582E43400F583EFF0900002E09C
:10006300C394084040E4F0803C90FE84E030E426F2
:10007300E054EFF0E030E10890FE8674FFF0802555
:10008300900002E004F02407F582E43400F583E0F5
:1000930090FE86F0800F90FE84E030E308E054F792
:1000A300F0D200D201D0BAD007D006D0D0D082D0BF
:0400B30083D0E032E4
:1000C600C297C2CCC2B3C2B4D296D292D290D2B2A6
:1000D600D2B5D2B6E4F5947593FFF592F591F596FF
:1000E600F59575B27CF5B1F5B4F5B3F5CAF5C975F4
:1000F600BA8090FE807481F090FE857430F090FE98
:1001060084E4F090FE837478F0D2AFD200D20190EE
:1001160000027401F0E02407F582E43400F583E080
:1001260090FE86F0E4FDFCFFFE12020F900007E051
:10013600640160030201C6D3900004E09464900059
:1001460003E0648094804004E4F0A3F0900004E0AF
:1001560004F07006900003E004F01202A490000D73
:10016600E0FF7E00900005EEF0A3EFF0D3946474F8
:100176008094804009900005E4F0A37464F0C39075
:100186000005E0648094805004E4F0A3F09000053C
:10019600E0FEA3E0FFC3900004E09FEE6480F890C9
:1001A6000003E06480985010900009E0FF7E009004
:1001B600000BE0FD7C008005E4FDFCFFFE12020F53
:1001C600900007E06402600302013290000DE064D3
:1001D600016003020132FBFD7F0112026D12024B28
:1001E6007FC87E0012028FE47D011202477FC8128B
:1001F600028F0BE41202467FC812028FE41B120222
:09020600467F3212028F02013220
:00000001FF
