:030000000206698C
:0C066900787FE4F6D8FD7581200206B011
:100776004200120032410011004100070041000909
:10078600004100050041000400410010004100083E
:100796000041000600460018000000000000460068
:1007A6000A000000000000420000000042002A008B
:1007B600004200140032420016006442001E0096F9
:1007C60042002000C84200220000420024003242BB
:0907D60000260000420028000A80
:0E08E600000075089075099DD509FDD508FA2A
:0108F40022E1
:1005330090FEECE4F0A3F090FEF0F0A3F090FEFE4A
:10054300F090FEF2F0A37464F090FEECE4F0A3F0FC
:1005530090FEE5F0A3F090FEB5F0A3F090FEE4F07A
:1005630090FEE87468F0A3F0A3F0A3F0A3E04401C5
:10057300F0E04410F0A3E04401F0E04410F090FEFA
:10058300F27403F0A374E8F090FEB5E4F0E04401E4
:10059300F0E04404F0E04410F0E04440F0A3E05401
:1005A300FC4401F0E054F34404F0E054CF4410F071
:1005B300E0543F4440F090FEFDE04480F090FEE0C4
:1005C300E04401F090FEF5E4F0A3F0A3F0A3F0A360
:0805D300F0A3F0A3F0A3F02255
:0F08F500E4F5F012010E900002E4F5F002012D7F
:1007E000438901900012E0FEA3E0FBE4C39BFFE419
:1007F0009EFE74019400FDE49400FCE4FB7A01F990
:10080000F81208328F8C900012E0FEA3E0FBE4C3E4
:100810009BFFE49EFE74019400FDE49400FCE4FB65
:100820007A01F9F8120832AF038F8AD2A9D2AFD277
:020830008C2218
:03000B0002027D71
:10027D00C0E0C0F0C083C082C0D075D000C000C047
:0D028D0001C002C003C004C005C006C007C8
:10029A00900012E0FEA3E0FBE4C39BFFE49EFE7421
:1002AA00019400FDE49400FCE4FB7A01F9F81208D9
:1002BA00328F8C900012E0FEA3E0FBE4C39BFFE4C4
:1002CA009EFE74019400FDE49400FCE4FB7A01F9BB
:1002DA00F8120832AF038F8A900001E004F070062A
:1002EA00900000E004F0900009E0FF900000E0FCBC
:1002FA00A3E0FDC39FEC94005003C38001D392B2E4
:10030A00900005E0FF7004D2B5800EC3ED9FEC9417
:10031A00005003C38001D392B5900004E0FF90001F
:10032A0000E0FCA3E0FDC39FEC94005003C38001EE
:10033A00D392B6900010E0FFC3ED9FEC94005003F7
:10034A00C38001D39296900008E0FF7004D2928095
:10035A0014C3900001E09F900000E094005003C392
:10036A008001D39292900006E0FF900000E0FCA387
:10037A00E0FDC39FEC94005003C38001D392909098
:10038A000012E0FEA3E0FFC3ED9FEC9E4007900041
:05039A0000E4F0A3F0F7
:10039F00D007D006D005D004D003D002D001D000B2
:0B03AF00D0D0D082D083D0F0D0E0325C
:0406F500AB07AA069F
:1006F900AE04AF057C007D1E1200C67D641200D8D1
:10070900EF2446FFE43EFEC3EF9446EE64809480F6
:1007190050047E007F46D3EF9464EE648094804059
:10072900047E007F64EB64014A701690FEF9F0A321
:10073900F0EF7803C333CE33CED8F9FF90FEFB80B8
:100749001AEB64024A701A90FEFBF0A3F0EF7803EB
:10075900C333CE33CED8F9FF90FEF9EEF0A3EFF014
:0C0769002290FEF9E4F0A3F0A3F0A3F04E
:010775002261
:0405DB00AB07AA06BA
:1005DF00AE04AF057C007D1E1200C67D641200D8EC
:1005EF00EF2446FFE43EFEC3EF9446EE6480948012
:1005FF0050047E007F46D3EF9464EE648094804075
:10060F00047E007F64EF7803C333CE33CED8F9FF77
:10061F0090002AEEF0A3EFF0EB64014A7015900002
:10062F002AE0FFA3E090FEF7CFF0A3EFF090FEF5E6
:10063F00E48023EB64024A90FEF77013F0A3F0906E
:10064F00002AE0FFA3E090FEF5CFF0A3EFF022E445
:09065F00F0A3F090FEF5F0A3F009
:01066800226F
:1008B200EF75F00584900009F0ED75F00584900065
:1008C20005F0EB75F00584900004F0EFD3940A5024
:1008D20002D2B2EDD3940A5002D2B5EBD3940A50AD
:0408E20002D2B62266
:08087600E0FFA3E0FDA3E0FB9D
:10087E00EF75F00584900010F0ED75F00584900092
:10088E0008F0EB75F00584900006F0EFD3940A5053
:10089E0002D296EDD3940A5002D292EBD3940A5020
:0408AE0002D29022C0
:0300C30002000E2A
:10000E00C0E0C083C082C0D075D000C006C007C09B
:10001E00BA43BA8090FE84E030E607E054BFF002A7
:10002E0000B390FE84E030E540E054DFF030000491
:10003E00C200807130010DC20190FE87E090000376
:10004E00F0E0804290FE87E0FF900003E0FE04F0B7
:10005E00742C2EF582E43400F583EFF0900003E06B
:10006E00C394084040E4F0803C90FE84E030E426E7
:10007E00E054EFF0E030E10890FE8674FFF080254A
:10008E00900003E004F0242CF582E43400F583E0C4
:10009E0090FE86F0800F90FE84E030E308E054F787
:1000AE00F0D200D201D0BAD007D006D0D0D082D0B4
:0400BE0083D0E032D9
:1003BA0090FEF0E4F0A3F090FEFEF090FEF27403DB
:1003CA00F0A374E8F090FEECE4F0A3F090FEE5F000
:1003DA00A3F090FEB5F0A3F090FEE4F090FEE8746E
:1003EA0068F090FEF5E4F0A3F090FEECE04401F032
:1003FA0090FEB6E04401F090FEB5E04401F090FEB4
:10040A00E97468F090FEF7E4F0A3F090FEECE044A3
:10041A0010F090FEB6E04404F090FEB5E04404F01B
:10042A0090FEEA7468F090FEF9E4F0A3F090FEED15
:10043A00E04401F090FEB6E04410F090FEB5E044CE
:10044A0010F090FEEB7468F090FEFBE4F0A3F090DD
:10045A00FEEDE04410F090FEB6E04440F090FEB5A8
:10046A00E04440F090FEE77401F090FEFD7480F0E5
:06047A0090FEE004F022F8
:100480007592CFE4F59175B2FFF5B175CAFFF5C964
:1004900075BA8090FE807481F090FE857430F09083
:1004A000FE84E4F090FE837478F0D296D292D290DB
:1004B000D2B2D2B5D2B6D2BC1207E0D2AFD200D2FD
:1004C000019000037401F0E0242CF582E43400F57F
:1004D00083E090FE86F01203BA90002CE024FE60C8
:1004E0001E14602C14603114602E240470EB9000F4
:1004F0002DE0FF7E00A3E0FD7C001205DB80DA909A
:10050000002DE0FF7E00A3E0FD7C001206F580C90F
:1005100090002D12087680C190002DE0FFA3E0FD31
:10052000A3E0FB1208B290002CE0B405ACA31208C3
:030530007680A62C
:10067500020480E493A3F8E493A34003F68001F217
:1006850008DFF48029E493A3F85407240CC8C33386
:10069500C4540F4420C8834004F456800146F6DF55
:1006A500E4800B0102040810204080900776E47E68
:1006B500019360BCA3FF543F30E509541FFEE4934A
:1006C500A360010ECF54C025E060A840B8E493A311
:1006D500FAE493A3F8E493A3C8C582C8CAC583CA3C
:1006E500F0A3C8C582C8CAC583CADFE9DEE780BEF4
:0107DF000019
:1000C600EF8DF0A4A8F0CF8CF0A428CE8DF0A42E4E
:0200D600FE2208
:1000D800C2D5EC30E709B2D5E4C39DFDE49CFCEE43
:1000E80030E715B2D5E4C39FFFE49EFE12015AC360
:1000F800E49DFDE49CFC800312015A30D507C3E45B
:060108009FFFE49EFE22B1
:10010E00BB010A89828A83F0E5F0A3F0225006F73C
:0F011E0009A7F01922BBFE06F3E5F009F3192239
:10012D00F8BB0111E58229F582E5833AF583E8F004
:10013D00E5F0A3F0225009E92582C8F608A6F022C1
:0D014D00BBFE09E92582C8F2E5F008F222A8
:10083200C2D5E830E70FB2D5E4C39BFBE49AFAE4F1
:1008420099F9E498F8EC30E717B2D512086812016A
:10085200EBE4C39BFBE49AFAE499F9E498F8800389
:100862001201EB30D50DE4C39FFFE49EFEE49DFD33
:04087200E49CFC22E4
:10015A00BC000BBE0029EF8DF084FFADF022E4CC89
:10016A00F875F008EF2FFFEE33FEEC33FCEE9DEC52
:10017A00984005FCEE9DFE0FD5F0E9E4CEFD22ED98
:10018A00F8F5F0EE8420D21CFEADF075F008EF2FE2
:10019A00FFED33FD4007985006D5F0F222C398FDD3
:0501AA000FD5F0EA2270
:1001AF0075F008758200EF2FFFEE33FECD33CDCC07
:1001BF0033CCC58233C5829BED9AEC99E58298408A
:1001CF000CF582EE9BFEED9AFDEC99FC0FD5F0D667
:1001DF00E4CEFBE4CDFAE4CCF9A88222B800C1B991
:1001EF000059BA002DEC8BF084CFCECDFCE5F0CBCF
:1001FF00F97818EF2FFFEE33FEED33FDEC33FCEB08
:10020F0033FB10D703994004EB99FB0FD8E5E4F9C2
:10021F00FA227818EF2FFFEE33FEED33FDEC33FCAF
:10022F00C933C910D7059BE99A4007EC9BFCE99AA3
:10023F00F90FD8E0E4C9FAE4CCFB2275F010EF2FE8
:10024F00FFEE33FEED33FDCC33CCC833C810D707E8
:10025F009BEC9AE899400AED9BFDEC9AFCE899F823
:0E026F000FD5F0DAE4CDFBE4CCFAE4C8F922B6
:00000001FF
